:100000000C942A000C9447000C9447000C94470071
:100010000C9447000C9447000C9447000C94EB029E
:100020000C9447000C9447000C9447000C94470034
:100030000C9447000C9447000C9447000C94470024
:100040000C9447000C9447000C9447000C94470014
:100050000C94470011241FBECFE5D8E0DEBFCDBF12
:1000600010E0A0E6B0E0E6E3F6E102C005900D92F4
:10007000A039B107D9F723E0A0E9B0E001C01D9293
:10008000AF34B207E1F70E94A6050C94190B0C944B
:100090000000CF93DF93EC010E943C082091900078
:1000A00030919100C9018C0F9D1F883542E0940763
:1000B00058F42817390758F4E901CE56DF4F9093CA
:1000C00091008093900005C0C0E0D0E002C0C0E085
:1000D000D0E00E940609CE01DF91CF9108950895E6
:1000E000C29889EF90E00197F1F700C00000C29A32
:1000F0008BED95E00197F1F700C000000895CF93D4
:10010000C82FC098C19888B38F7088BB88B39C2FC4
:10011000907F892B88BB0E94700088B38F7088BB4A
:1001200088B3C295C07FC82BC8BB0E947000CF9116
:1001300008958FEF87BB84E088BB83E30E947F0034
:1001400082E30E947F0088E20E947F008CE00E9490
:100150007F000895CF93C82FC09AC19888B38F703D
:1001600088BB88B39C2F907F892B88BB0E9470002E
:1001700088B38F7088BB88B3C295C07FC82BC8BBBB
:100180000E947000CF910895813049F028F08230AC
:1001900049F0833051F00CC080E8860F0AC080EC33
:1001A000860F07C080E8860F04C080E8860F01C074
:1001B00080E80E947F00089581E00E947F000895FA
:1001C000CF93DF93EC018881882331F021960E9440
:1001D000AA0089918111FBCFDF91CF910895CF9330
:1001E000DF93EC01862F642F0E94C400CE010E9491
:1001F000E000DF91CF910895FC0103969283818303
:100200002FEF3FEF34832383968385839087878303
:1002100010820895FC01118610860895CF93DF9314
:10022000FC01DB0121813281E9018A819B811396E6
:100230009C938E9312978181928115969C938E93B5
:1002400014978A819B81EC017D836C83E9017B8318
:100250006A83728361831996FC93EE931897808169
:100260008F5F8083DF91CF910895CF93DF93EB0170
:10027000488159814F3F2FEF520731F4DC01179627
:10028000ED91FC91189717C0FC013396DC0115968F
:100290002D913C911697D9012D913C91421753070E
:1002A00050F00280F381E02DA281B3812D913C9129
:1002B00042175307B0F7A281B381BB83AA83159677
:1002C000DC93CE931497FD83EC83D383C283998709
:1002D0008887FC0120812F5F2083DF91CF910895D3
:1002E000FC01A281B3818481958115969C938E93A4
:1002F0001497A481B5818281938113969C938E93E8
:100300001297A085B18511968D919C911297E8174F
:10031000F90731F48481958112969C938E931197FD
:10032000118610868C9181508C93089531E1FC01E7
:100330003083319722E220833197A3E3A083319762
:1003400060833197708331971082319760E86083C2
:1003500031971082319762E06083319763E0608368
:10036000319764E06083319765E06083319766E0A0
:100370006083319767E06083319768E060833197ED
:1003800069E06083319760E1608331973083319712
:1003900032E13083319733E13083319734E1308378
:1003A000319735E13083319736E13083319737E14A
:1003B0003083319738E13083319739E13083319799
:1003C00030E23083319731E23083319720833197A7
:1003D00023E220833197408331975083319726E27F
:1003E0002083319727E22083319728E220833197B9
:1003F00029E22083319720E32083319721E3208372
:10040000869708951BBC8CE78ABD8BE08EBD89B7AB
:10041000806189BFA0914B03B0914C03CD91CDBFBA
:10042000DD91DEBFFF91EF91DF91CF91BF91AF9151
:100430009F918F917F916F915F914F913F912F91FC
:100440001F910F91FF90EF90DF90CF90BF90AF90F2
:100450009F908F907F906F905F904F903F902F90E4
:100460001F900F900FBE0F90089581E008950F9296
:100470000FB6F8940F921F9211242F923F924F9231
:100480005F926F927F928F929F92AF92BF92CF9224
:10049000DF92EF92FF920F931F932F933F934F930F
:1004A0005F936F937F938F939F93AF93BF93CF93FC
:1004B000DF93EF93FF93A0914B03B0914C030DB6E4
:1004C0000D920EB60D920E94BE09A0914B03B09101
:1004D0004C03CD91CDBFDD91DEBFFF91EF91DF9158
:1004E000CF91BF91AF919F918F917F916F915F91CC
:1004F0004F913F912F911F910F91FF90EF90DF90BF
:10050000CF90BF90AF909F908F907F906F905F90B3
:100510004F903F902F901F900F900FBE0F90089517
:100520000F920FB6F8940F921F9211242F923F92C0
:100530004F925F926F927F928F929F92AF92BF92F3
:10054000CF92DF92EF92FF920F931F932F933F93DF
:100550004F935F936F937F938F939F93AF93BF93CB
:10056000CF93DF93EF93FF93A0914B03B0914C0394
:100570000DB60D920EB60D920E9442080E94BE0961
:10058000A0914B03B0914C03CD91CDBFDD91DEBF67
:10059000FF91EF91DF91CF91BF91AF919F918F919B
:1005A0007F916F915F914F913F912F911F910F918B
:1005B000FF90EF90DF90CF90BF90AF909F908F9083
:1005C0007F906F905F904F903F902F901F900F9073
:1005D0000FBE0F9008950E9490021895CF93DF935D
:1005E000EC018C8D8823A9F1411117C0482F50E0F0
:1005F0008C819D810E94FA0A2C8D8C819D81820FB5
:10060000911D9D838C832A813B818217930708F17A
:10061000888199819D838C831CC0482F50E08E81F6
:100620009F810E94FA0A8C8D90E0919581959109A5
:100630002E813F81280F391F3F832E8348815981A6
:100640002417350730F42A813B81820F931F9F8343
:100650008E838A8D8F5F8A8FDF91CF910895FC0101
:10066000808191810097A1F0448D50E026813781EF
:10067000240F351F37832683A281B3812A173B07B6
:1006800010F097838683CB01668177810E94FA0AF6
:1006900008950F931F93CF93DF93EC010FB6F89457
:1006A0000F928E8D1816B4F48989811105C012C07D
:1006B0008989811104C00EC08E010F5E1F4FC801D1
:1006C0000E94470A81110E94CE0A8E8D81508E8F22
:1006D000181674F38FEF8E8F0F900FBE0FB6F8942D
:1006E0000F928D8D1816B4F48885811105C012C043
:1006F0008885811104C00EC08E01085F1F4FC8019C
:100700000E94470A81110E94CE0A8D8D81508D8FE3
:10071000181674F38FEF8D8F0F900FBEDF91CF916E
:100720001F910F910895CF92DF92EF92FF920F9356
:100730001F93CF93DF938823D1F1E62EF82E8FE11C
:1007400090E00E944900EC01892B99F1CE2CD12C2C
:10075000FC9C8001FD9C100D1124C80101960E9493
:100760004900998388830097E1F09C01200F311F95
:100770003B832A831A8E9D838C830C191D09080FD5
:10078000191F1F830E83FB8EEC8E8FEF8D8F8E8F44
:10079000CE0108960E94FC00CE0141960E94FC000A
:1007A00008C0CE010E946F00C0E0D0E002C0C0E0EF
:1007B000D0E0CE01DF91CF911F910F91FF90EF908C
:1007C000DF90CF9008959F92AF92BF92CF92DF9229
:1007D000EF92FF920F931F93CF93DF9300D000D03F
:1007E0001F92CDB7DEB78C016B015D834C83922ED7
:1007F000B12CAA24A3947C0188E0E80EF11C0FB66A
:10080000F8940F92F801928D838D9817A8F4492DD2
:10081000B601C8010E94EE02F8018189882341F0E7
:10082000C80141960E94470A813011F40E943702A4
:100830000F900FBE81E050C08C819D81892B21F4E7
:100840000F900FBE80E048C0B11005C0CE010196E8
:100850000E948C0ABA2C0F900FBE0E943C080FB663
:10086000F8940F92F801858D8F3F09F4158EF801E9
:10087000868D8F3F09F4168E0F900FBEBE016C5F00
:100880007F4FCE0101960E94970A81111FC00FB6BB
:10089000F8940F92F801928D0F900FBE838D9813EC
:1008A0000FC06C817D81C7010E942A0AC8010E9485
:1008B00049030E9406098111A2CF0E9437029FCFEF
:1008C000C8010E9449030E94060999CFC8010E94ED
:1008D00049030E94060980E00F900F900F900F903F
:1008E0000F90DF91CF911F910F91FF90EF90DF90CC
:1008F000CF90BF90AF909F9008959F92AF92BF927C
:10090000CF92DF92EF92FF920F931F93CF93DF93DB
:1009100000D000D01F92CDB7DEB78C016B015D8394
:100920004C83922EB12CAA24A3947C0181E1E80E81
:10093000F11C0FB6F8940F92F801828D882349F1CB
:10094000E680F780B601C8010E942F03911010C005
:10095000F801828D8150828F80858823B1F0C80193
:1009600008960E94470A813081F40E9437020DC028
:10097000F801F782E6828189882339F0C80141961F
:100980000E94470A81110E9437020F900FBE81E03A
:100990004FC08C819D81892B21F40F900FBE80E088
:1009A00047C0B11005C0CE0101960E948C0ABA2C36
:1009B0000F900FBE0E943C080FB6F8940F92F801FA
:1009C000858D8F3F09F4158EF801868D8F3F09F4D0
:1009D000168E0F900FBEBE016C5F7F4FCE01019649
:1009E0000E94970A81111EC00FB6F8940F92F80169
:1009F000828D0F900FBE81110FC06C817D81C70168
:100A00000E942A0AC8010E9449030E940609811116
:100A100090CF0E9437028DCFC8010E9449030E94E7
:100A2000060987CFC8010E9449030E94060980E099
:100A30000F900F900F900F900F90DF91CF911F911B
:100A40000F91FF90EF90DF90CF90BF90AF909F906D
:100A500008951F93CF93DF9313E02EC00E94DC0014
:100A6000AE0160E070E082E690E00E94EF002FE7C8
:100A700088E391E0215080409040E1F700C0000001
:100A8000219760F7C0E0D0E0AE0160E070E082E660
:100A900090E00E94EF008FE798E321E081509040C2
:100AA0002040E1F700C000000E94DC002196CA301F
:100AB000D10551F71150A1F049E050E060E070E03D
:100AC00082E690E00E94EF008FE798E321E08150FA
:100AD00090402040E1F700C00000C8E0D0E0BECF69
:100AE00020E040E050E060E070E080914D039091A4
:100AF0004E030E94E30380E090E00E94C807DF916C
:100B0000CF911F91089520E04FEF5FEF60E070E01C
:100B100080914D0390914E030E947D040E94DC0061
:100B200041E050E060E070E08AE690E00E94EF0073
:100B30002FEF84E39CE0215080409040E1F700C01B
:100B4000000080E090E00E94C8070895AF92BF9235
:100B5000CF92DF92EF92FF920F930E9499008FEF56
:100B60008ABB8FE081BB82B3806F82BB60E081E093
:100B70000E94930390934E0380934D03009739F0A6
:100B800020E040E050E060E070E00E94E30320E0FD
:100B90004FEF5FEF60E070E080914D0390914E0366
:100BA0000E947D04A12CB12CC12CD12CE12CF12C64
:100BB00005E020E030E045E550E060E070E089E2EB
:100BC00095E00E94BF0601E020E030E045E550E0FE
:100BD00060E070E087E196E00E94BF0604E020E05C
:100BE00030E045E550E060E070E083E895E00E9489
:100BF000BF060E94110880E090E00F91FF90EF90F7
:100C0000DF90CF90BF90AF9008958BB380958BBB52
:100C10002FEF84E39CE0215080409040E1F700C03A
:100C20000000089583B7896683BFBB9A0895CF9368
:100C3000CEE041E050E060E070E08FE690E00E949E
:100C4000EF0042E050E061E070E08DE790E00E944C
:100C5000EF002FEF84E39CE0215080409040E1F7CB
:100C600000C000000E94DC002FE78AE196E02150DE
:100C700080409040E1F700C00000C150D1F60E94D2
:100C800012062FEF30E0EAE0F0E0C901BF010E9458
:100C9000D20A6CBF8FE493EC0197F1F700C000001B
:100CA00021503F4F253F9AE0390779F783B713BEAC
:100CB000C39A2FE78AE196E0215080409040E1F707
:100CC00000C000000E94120626EF39E0EAE0F0E0E2
:100CD000C901BF010E94D20A6CBF8FE493EC019757
:100CE000F1F700C000002F5F310991F783B713BE01
:100CF000C3989FE72AE186E0915020408040E1F7C9
:100D000000C0000080E090E00E94C807CF910895E5
:100D1000CF93DF93EC01E0914B03F0914C0393836D
:100D200082838091F2029091F302C817D90768F488
:100D300060914B0370914C038091080390910903DB
:100D40006E5F7F4F0E94350117C060914B03709119
:100D50004C0380910A0390910B036E5F7F4F0E94BA
:100D600035018091600090916100C817D90720F487
:100D7000D0936100C0936000DF91CF9108954F92AE
:100D80005F926F927F928F929F92AF92BF92CF921B
:100D9000DF92EF92FF920F931F93CF93DF935C014B
:100DA0004B01EA01290181E290E00E9449003C01E7
:100DB000009709F4DBC0C114D10409F0D2C0CE0100
:100DC0000E944900F301908F878B009721F4C301A3
:100DD0000E946F00CBC0AE0165EA70E00E94030B79
:100DE0002197F3018789908DC80FD91F48E050E003
:100DF000B401C30149960E940A0BF30110A2102FFF
:100E0000053008F014E0F301168B6301F2E0CF0E19
:100E1000D11CC6010E940A01C3010C960E940A015E
:100E2000F3017186608685E090E0811B91099587CA
:100E30008487738A628AA201B501CE010E9496015D
:100E4000F30191838083E114F10419F0F7017182B9
:100E500060820FB6F8940F928091F4028F5F8093B6
:100E6000F40280914B0390914C03892BA1F5709271
:100E70004C0360924B038091F4028130D9F5CEE1AE
:100E8000D3E00F2EFBE4EF2EF3E0FF2EF02DCE018A
:100E90000E94FC002996CE15DF05C9F785E193E095
:100EA0000E94FC008CE093E00E94FC008FEF92E037
:100EB0000E94FC0086EF92E00E94FC0085E193E036
:100EC00090930B0380930A038CE093E090930903C3
:100ED000809308030FC08091EF0281110BC0E09155
:100EE0004B03F0914C038689081720F070924C0355
:100EF00060924B03F30186899091F102981710F4E8
:100F00008093F1029091EA029F5F9093EA029091A0
:100F1000F002981710F48093F00290E09C01220FE9
:100F2000331F220F331F220F331F820F931FB6016F
:100F3000825E9C4F0E940E010F900FBE8091EF02C7
:100F4000882359F0E0914B03F0914C038689801778
:100F500030F40E94370281E00AC081E008C081E0DD
:100F600006C0FC01D08EC78AC60135CF8FEFDF9156
:100F7000CF911F910F91FF90EF90DF90CF90BF9096
:100F8000AF909F908F907F906F905F904F9008955B
:100F9000EF92FF920F931F93CF93DF93EC010FB665
:100FA000F8940F9280914B0390914C038C179D07FE
:100FB00011F0209739F4C0914B03D0914C03E12CF0
:100FC000F12C01C07E018E010E5F1F4FC8010E94EF
:100FD00070018C899D89892B21F0CE010C960E948D
:100FE0007001B80186EF92E00E940E018091F50237
:100FF0008F5F8093F5028091EA028F5F8093EA020F
:101000000F900FBE8091EF02882321F0EF2811F49A
:101010000E943702DF91CF911F910F91FF90EF90C7
:101020000895AF92BF92CF92DF92EF92FF920F930B
:10103000A12CB12CC12CD12CE12CF12C00E020E012
:1010400030E045E550E06AE870E08CE899E00E9405
:10105000BF06813049F4F8948093EF021092F302B6
:101060001092F2020E9402020F91FF90EF90DF9027
:10107000CF90BF90AF9008958091EE028F5F8093E4
:10108000EE0208950F931F93CF93DF938091EE02AA
:101090008111B2C08091F2029091F3020196909377
:1010A000F3028093F2028091F2029091F302892B75
:1010B00099F580910A0390910B03209108033091D8
:1010C000090330930B0320930A0390930903809341
:1010D00008038091EB028F5F8093EB02E0910A039B
:1010E000F0910B038081811107C08FEF9FEF9093E8
:1010F00061008093600010C0E0910A03F0910B033F
:101100000580F681E02D0680F781E02D82819381B4
:1011100090936100809360002091F2023091F3027D
:1011200080916000909161002817390708F469C028
:10113000E0910A03F0910B038081882399F0E091FC
:101140000A03F0910B030580F681E02DC681D7815B
:101150008A819B812091F2023091F302281739078E
:10116000F8F419C08FEF9FEF9093610080936000B7
:1011700048C0E0910A03F0910B030580F681E02D51
:10118000C681D7818A819B812091F2023091F3023E
:101190002817390728F4909361008093600031C0CC
:1011A0008E010E5F1F4FC8010E9470018C899D89BE
:1011B000892B21F0CE010C960E9470018E899091AE
:1011C000F002981710F48093F00290E09C01220F37
:1011D000331F220F331F220F331F820F931FB801BB
:1011E000825E9C4F0E940E01E0910A03F0910B0376
:1011F00080818111BECFB6CF8091ED028F5F809349
:10120000ED02DF91CF911F910F910895CF92DF9260
:10121000EF92FF920F931F93CF93DF930FB6F89443
:101220000F928091EE0281508093EE028091EE0247
:10123000811164C08091F402811132C062C0D70173
:101240001596ED91FC911697C681D781CE010C962B
:101250000E9470018E010E5F1F4FC8010E94700135
:101260008E899091F002981710F48093F00290E02C
:101270009C01220F331F220F331F220F331F820FB7
:10128000931FB801825E9C4F0E940E01E0914B03B8
:10129000F0914C039E898689981758F0DC2C09C080
:1012A000D12C0F2EFFEFEF2EF2E0FF2EF02DCC24ED
:1012B000C394F70180818111C2CF8091ED02882310
:1012C00081F08091ED02882399F00E94420880917C
:1012D000ED0281508093ED028091ED028111F5CFF6
:1012E00007C0F1E0DF1621F08091EC02813041F47B
:1012F0001092EC020E94370281E003C080E001C03E
:1013000080E00F900FBEDF91CF911F910F91FF9062
:10131000EF90DF90CF90089506EF12E08091F502F4
:10132000882349F10E943C08D801CC910E9406090B
:10133000CC2309F10FB6F8940F92D8011596ED91D0
:10134000FC911697C681D781CE0102960E9470014A
:101350008091F40281508093F4028091F5028150D3
:101360008093F5020F900FBE8F89988D0E946F00B9
:10137000CE010E946F000E940506D0CF8091EE0240
:10138000811113C08091F00290E0FC01EE0FFF1F6D
:10139000EE0FFF1FEE0FFF1F8E0F9F1FFC01E25E7F
:1013A000FC4F8081882329F01BC081E08093EC02F0
:1013B00008958091F00281508093F0028091F002B4
:1013C00090E0FC01EE0FFF1FEE0FFF1FEE0FFF1F5F
:1013D0008E0F9F1FFC01E25EFC4F8081882349F342
:1013E0008091F00290E09C01220F331F220F331FE7
:1013F000220F331F280F391FD901A25EBC4F11964F
:10140000ED91FC9112970280F381E02D1296FC93EE
:10141000EE9311972F5D3C4FE217F30729F42281D9
:101420003381FD0132832183FC01EE0FFF1FEE0F9C
:10143000FF1FEE0FFF1F8E0F9F1FFC01E25EFC4F90
:101440000180F281E02D8681978190934C038093F7
:101450004B030895CF93DF93EB0160914B037091A1
:101460004C03645F7F4F0E94350180914B03909144
:101470004C0302960E9470018091F2029091F30257
:101480008C0F9D1F0E948806DF91CF9108950F93C6
:101490001F93CF93DF93DC011596ED91FC91169786
:1014A000C681D7818E01045F1F4FC8010E94700161
:1014B0008091EE0281111CC00A501109C8010E94DE
:1014C00070018E899091F002981710F48093F002C9
:1014D00090E09C01220F331F220F331F220F331F76
:1014E000820F931FB801825E9C4F0E940E0105C0BF
:1014F000B8018FEF92E00E940E01E0914B03F09152
:101500004C0381E02E899689291708F480E0DF9149
:10151000CF911F910F9108952091EB02FC01208340
:101520002091F2023091F302328321830895FC016D
:101530000FB6F8940F928091EB029081981749F0C2
:101540008091F2029091F3022181328182179307F8
:10155000F8F48091F2029091F30241815281DB0113
:101560002D913C911197841B950B8217930790F452
:10157000CF01E091F202F091F302BF01641B750B01
:10158000261B370B2D933C930E948C0A80E003C0EE
:1015900081E001C081E00F900FBE089581E080934B
:1015A000EC02089597FB072E16F4009407D077FD00
:1015B00009D00E94E60A07FC05D03EF4909581957B
:1015C0009F4F0895709561957F4F0895AA1BBB1B8F
:1015D00051E107C0AA1FBB1FA617B70710F0A61B33
:1015E000B70B881F991F5A95A9F780959095BC0154
:1015F000CD010895FB01DC0102C001900D92415024
:101600005040D8F70895DC0101C06D93415050401F
:10161000E0F70895FB01DC014150504048F0019093
:101620000D920020C9F701C01D9241505040E0F7D3
:061630000895F894FFCFBD
:10163600FFFF77656C636F6D65006C6F6C6F007094
:101646007265737320616E79206B657900746F2003
:10165600636F6E74696E7565200049444C450000E1
:00000001FF
