S01A000052544F535F4C4142315F41544D45474133322E73726563F0
S11300000C942A000C9447000C9447000C9447006D
S11300100C9447000C9447000C9447000C948B02FA
S11300200C9447000C9447000C9447000C94470030
S11300300C9447000C9447000C9447000C94470020
S11300400C9447000C9447000C9447000C94470010
S11300500C94470011241FBECFE5D8E0DEBFCDBF0E
S113006010E0A0E6B0E0E0EDFCE002C005900D92E7
S1130070A638B107D9F723E0A6E8B0E001C01D9285
S1130080A334B207E1F70E94B6020C9466060C94FE
S11300900000CF93DF93EC010E946404209186005A
S11300A030918700C9018C0F9D1F883542E0940769
S11300B058F42817390758F4E901C857DF4F9093CB
S11300C087008093860005C0C0E0D0E002C0C0E095
S11300D0D0E00E942E05CE01DF91CF9108950895BE
S11300E0C29889EF90E00197F1F700C00000C29A2E
S11300F08BED95E00197F1F700C000000895CF93D0
S1130100C82FC098C19888B38F7088BB88B39C2FC0
S1130110907F892B88BB0E94700088B38F7088BB46
S113012088B3C295C07FC82BC8BB0E947000CF9112
S113013008958FEF87BB84E088BB83E30E947F0030
S113014082E30E947F0088E20E947F008CE00E948C
S11301507F000895CF93C82FC09AC19888B38F7039
S113016088BB88B39C2F907F892B88BB0E9470002A
S113017088B38F7088BB88B3C295C07FC82BC8BBB7
S11301800E947000CF91089581E00E947F0008953D
S1130190CF93DF93EC018881882331F021960E946C
S11301A0AA0089918111FBCFDF91CF910895FC01C1
S11301B00396928381832FEF3FEF348323839683C7
S11301C085839087878310820895FC0111861086A9
S11301D00895CF93DF93FC01DB0121813281E90192
S11301E08A819B8113969C938E931297818192812D
S11301F015969C938E9314978A819B81EC017D8341
S11302006C83E9017B836A83728361831996FC930F
S1130210EE93189780818F5F8083DF91CF9108954B
S1130220FC01A281B3818481958115969C938E9360
S11302301497A481B5818281938113969C938E93A4
S11302401297A085B18511968D919C911297E8170C
S1130250F90731F48481958112969C938E931197BA
S1130260118610868C9181508C93089531E1FC01A4
S11302703083319722E220833197A3E3A08331971F
S113028060833197708331971082319760E860837F
S113029031971082319762E06083319763E0608325
S11302A0319764E06083319765E06083319766E05D
S11302B06083319767E06083319768E060833197AA
S11302C069E06083319760E16083319730833197CF
S11302D032E13083319733E13083319734E1308335
S11302E0319735E13083319736E13083319737E107
S11302F03083319738E13083319739E13083319756
S113030030E23083319731E2308331972083319763
S113031023E220833197408331975083319726E23B
S11303202083319727E22083319728E22083319775
S113033029E22083319720E32083319721E320832E
S1130340869708951BBC8CE78ABD8BE08EBD89B768
S1130350806189BFA0914103B0914203CD91CDBF8B
S1130360DD91DEBFFF91EF91DF91CF91BF91AF910E
S11303709F918F917F916F915F914F913F912F91B9
S11303801F910F91FF90EF90DF90CF90BF90AF90AF
S11303909F908F907F906F905F904F903F902F90A1
S11303A01F900F900FBE0F90089581E008950F9253
S11303B00FB6F8940F921F9211242F923F924F92EE
S11303C05F926F927F928F929F92AF92BF92CF92E1
S11303D0DF92EF92FF920F931F932F933F934F93CC
S11303E05F936F937F938F939F93AF93BF93CF93B9
S11303F0DF93EF93FF93A0914103B09142030DB6B5
S11304000D920EB60D920E94E405A0914103B091A5
S11304104203CD91CDBFDD91DEBFFF91EF91DF911E
S1130420CF91BF91AF919F918F917F916F915F9188
S11304304F913F912F911F910F91FF90EF90DF907B
S1130440CF90BF90AF909F908F907F906F905F9070
S11304504F903F902F901F900F900FBE0F900895D4
S11304600F920FB6F8940F921F9211242F923F927D
S11304704F925F926F927F928F929F92AF92BF92B0
S1130480CF92DF92EF92FF920F931F932F933F939C
S11304904F935F936F937F938F939F93AF93BF9388
S11304A0CF93DF93EF93FF93A0914103B091420365
S11304B00DB60D920EB60D920E946A040E94E405D8
S11304C0A0914103B0914203CD91CDBFDD91DEBF38
S11304D0FF91EF91DF91CF91BF91AF919F918F9158
S11304E07F916F915F914F913F912F911F910F9148
S11304F0FF90EF90DF90CF90BF90AF909F908F9040
S11305007F906F905F904F903F902F901F900F902F
S11305100FBE0F9008950E94300218950E94C400E7
S113052082E690E00E94C8002FEF89E698E121500E
S113053080409040E1F700C0000080E090E00E941D
S1130540F00308950E94C40081E790E00E94C8006F
S11305502FEF89E698E1215080409040E1F700C0F8
S1130560000080E090E00E94F0030895AF92BF92F3
S1130570CF92DF92EF92FF920F930E949900A12CE9
S1130580B12CC12CD12CE12CF12C03E020E030E083
S113059045E550E060E070E08EE892E00E94E702FA
S11305A002E020E030E045E550E060E070E082EAFF
S11305B092E00E94E7020E94390480E090E00F91EB
S11305C0FF90EF90DF90CF90BF90AF9008954F923F
S11305D05F926F927F928F929F92AF92BF92CF92CF
S11305E0DF92EF92FF920F931F93CF93DF935C01FF
S11305F04B01EA01290181E290E00E9449003C019B
S1130600009709F4DBC0C114D10409F0D2C0CE01B3
S11306100E944900F301908F878B009721F4C30156
S11306200E946F00CBC0AE0165EA70E00E945006E4
S11306302197F3018789908DC80FD91F48E050E0B6
S1130640B401C30149960E945706F30110A2102F6A
S1130650053008F014E0F301168B6301F2E0CF0ECD
S1130660D11CC6010E94E500C3010C960E94E5005E
S1130670F3017186608685E090E0811B910995877E
S11306808487738A628AA201B501CE010E94360171
S1130690F30191838083E114F10419F0F70171826D
S11306A060820FB6F8940F928091EA028F5F809374
S11306B0EA028091410390914203892BA1F5709243
S11306C04203609241038091EA028130D9F5C4E18A
S11306D0D3E00F2EF1E4EF2EF3E0FF2EF02DCE0148
S11306E00E94D7002996CE15DF05C9F78BE093E069
S11306F00E94D70082E093E00E94D70085EF92E049
S11307000E94D7008CEE92E00E94D7008BE093E029
S1130710909301038093000382E093E09093FF029F
S11307208093FE020FC08091E50281110BC0E0911D
S11307304103F09142038689081720F07092420326
S113074060924103F30186899091E702981710F4AF
S11307508093E7029091E0029F5F9093E002909172
S1130760E602981710F48093E60290E09C01220FB1
S1130770331F220F331F220F331F820F931FB60123
S11307808C5E9C4F0E94E9000F900FBE8091E502A1
S1130790882359F0E0914103F09142038689801740
S11307A030F40E94D70181E00AC081E008C081E0F2
S11307B006C0FC01D08EC78AC60135CF8FEFDF910A
S11307C0CF911F910F91FF90EF90DF90CF90BF904A
S11307D0AF909F908F907F906F905F904F9008950F
S11307E0EF92FF920F931F93CF93DF93EC010FB619
S11307F0F8940F9280914103909142038C179D07C6
S113080011F0209739F4C0914103D0914203E12CB7
S1130810F12C01C07E018E010E5F1F4FC8010E94A2
S113082010018C899D89892B21F0CE010C960E94A0
S11308301001B8018CEE92E00E94E9008091EB0275
S11308408F5F8093EB028091E0028F5F8093E002E0
S11308500F900FBE8091E502882321F0EF2811F458
S11308600E94D701DF91CF911F910F91FF90EF90DC
S11308700895AF92BF92CF92DF92EF92FF920F93BF
S1130880A12CB12CC12CD12CE12CF12C00E020E0C6
S113089030E045E550E060E870E084EB95E00E94CC
S11308A0E702813049F4F8948093E5021092E9025A
S11308B01092E8020E94A2010F91FF90EF90DF9046
S11308C0CF90BF90AF9008958091E4028F5F8093A2
S11308D0E40208950F931F93CF93DF938091E40272
S11308E08111B2C08091E8029091E902019690933F
S11308F0E9028093E8028091E8029091E902892B51
S113090099F580910003909101032091FE023091AA
S1130910FF0230930103209300039093FF0280931E
S1130920FE028091E1028F5F8093E102E091000377
S1130930F09101038081811107C08FEF9FEF9093A5
S113094061008093600010C0E0910003F091010306
S11309500580F681E02D0680F781E02D8281938168
S113096090936100809360002091E8023091E90245
S113097080916000909161002817390708F469C0DC
S1130980E0910003F09101038081882399F0E091C4
S11309900003F09101030580F681E02DC681D78123
S11309A08A819B812091E8023091E9022817390756
S11309B0F8F419C08FEF9FEF90936100809360006B
S11309C048C0E0910003F09101030580F681E02D19
S11309D0C681D7818A819B812091E8023091E90206
S11309E02817390728F4909361008093600031C080
S11309F08E010E5F1F4FC8010E9410018C899D89D2
S1130A00892B21F0CE010C960E9410018E899091C1
S1130A10E602981710F48093E60290E09C01220FFE
S1130A20331F220F331F220F331F820F931FB8016E
S1130A308C5E9C4F0E94E900E0910003F091010359
S1130A4080818111BECFB6CF8091E3028F5F809306
S1130A50E302DF91CF911F910F910895CF92DF921E
S1130A60EF92FF920F931F93CF93DF930FB6F894F7
S1130A700F928091E40281508093E4028091E40219
S1130A80811164C08091EA02811132C062C0D70131
S1130A901596ED91FC911697C681D781CE010C96DF
S1130AA00E9410018E010E5F1F4FC8010E941001A9
S1130AB08E899091E602981710F48093E60290E0F4
S1130AC09C01220F331F220F331F220F331F820F6B
S1130AD0931FB8018C5E9C4F0E94E900E091410392
S1130AE0F09142039E898689981758F0DC2C09C03E
S1130AF0D12C0F2EF5EFEF2EF2E0FF2EF02DCC24AB
S1130B00C394F70180818111C2CF8091E3028823CD
S1130B1081F08091E302882399F00E946A04809115
S1130B20E30281508093E3028091E3028111F5CFC7
S1130B3007C0F1E0DF1621F08091E202813041F438
S1130B401092E2020E94D70181E003C080E001C05C
S1130B5080E00F900FBEDF91CF911F910F91FF9016
S1130B60EF90DF90CF9008950CEE12E08091EB02AD
S1130B708823E1F30E946404D801CC910E942E05DD
S1130B80CC23A1F30FB6F8940F92D8011596ED91EA
S1130B90FC911697C681D781CE0102960E9410015E
S1130BA08091EA0281508093EA028091EB028150A5
S1130BB08093EB020F900FBE8F89988D0E946F0077
S1130BC0CE010E946F00D2CF8091E402811113C044
S1130BD08091E60290E0FC01EE0FFF1FEE0FFF1F75
S1130BE0EE0FFF1F8E0F9F1FFC01EC5EFC4F8081F8
S1130BF0882329F01BC081E08093E202089580914C
S1130C00E60281508093E6028091E60290E0FC01C6
S1130C10EE0FFF1FEE0FFF1FEE0FFF1F8E0F9F1F24
S1130C20FC01EC5EFC4F8081882349F38091E6024D
S1130C3090E09C01220F331F220F331F220F331F1A
S1130C40280F391FD901AC5EBC4F1196ED91FC9170
S1130C5012970280F381E02D1296FC93EE93119784
S1130C60295E3C4FE217F30729F422813381FD0109
S1130C7032832183FC01EE0FFF1FEE0FFF1FEE0FE7
S1130C80FF1F8E0F9F1FFC01EC5EFC4F0180F28161
S1130C90E02D8681978190934203809341030895C8
S1130CA0DC0101C06D9341505040E0F70895FB0111
S1130CB0DC014150504048F001900D920020C9F7EA
S1130CC001C01D9241505040E0F70895F894FFCFC1
S1130CD0FFFF4920616D205461736B206C6F6C6F52
S1130CE0004920616D205461736B206D6F6D6F003E
S1090CF049444C450000DC
S9030000FC
