S01E000052544F535F4C4142315F41544D45474133325F365F302E73726563C8
S11300000C942A000C9447000C9447000C9447006D
S11300100C9447000C9447000C9447000C94D102B4
S11300200C9447000C9447000C9447000C94470030
S11300300C9447000C9447000C9447000C94470020
S11300400C9447000C9447000C9447000C94470010
S11300500C94470011241FBECFE5D8E0DEBFCDBF0E
S113006010E0A0E6B0E0EAE6FBE102C005900D92E4
S1130070AA38B107D9F726E0AAE8B0E001C01D927A
S1130080A43FB207E1F70E9437050C94B30D0C941A
S113009000000F931F93CF93DF938C010E94F60906
S11300A0C0918A00D0918B00CE01800F911F8C3DAE
S11300B025E0920750F4C817D90738F4C457DF4F26
S11300C090938B0080938A0002C0C0E0D0E00E942D
S11300D0A50ACE01DF91CF911F910F910895089544
S11300E0C29889EF90E00197F1F700C00000C29A2E
S11300F08BED95E00197F1F700C000000895CF93D0
S1130100C82FC098C19888B38F7088BB88B39C2FC0
S1130110907F892B88BB0E94700088B38F7088BB46
S113012088B3C295C07FC82BC8BBCF910C94700014
S11301308FEF87BB84E088BB83E30E947F0082E368
S11301400E947F0088E20E947F008CE00C947F0074
S1130150CF93C82FC09AC19888B38F7088BB88B3D7
S11301609C2F907F892B88BB0E94700088B38F706E
S113017088BB88B3C295C07FC82BC8BBCF910C94F1
S11301807000813031F038F0823029F0833019F07A
S113019005C080EC01C080E8860F01C080E80C94A3
S11301A07F0081E00C947F00CF93DF93EC01899171
S11301B0882319F00E94A800FACFDF91CF91089507
S11301C0CF93DF93EC01862F642F0E94C100CE01F0
S11301D0DF91CF910C94D400FC0103969283818328
S11301E02FEF3FEF34832383968385839087878320
S11301F010820895FC01118610860895CF93DF9331
S1130200DC01FB0111962D913C911297E9018A8141
S11302109B8193838283358324838A819B81EC0130
S11302207D836C83E9017B836A8312967C936E934E
S11302301197B187A0878C918F5F8C93DF91CF91B9
S11302400895CF93DF93AC01DB018D919C911197BD
S11302508F3F2FEF920721F4EA01EF81F8850EC05A
S1130260FA01339622813381E90128813981821789
S1130270930720F00280F381E02DF4CF82819381F3
S113028013969C938E931297EC01BD83AC831596C1
S1130290FC93EE931497B383A28319965C934E93C5
S11302A01897FA0180818F5F8083DF91CF91089541
S11302B0CF93DF93FC01A281B3818481958115964C
S11302C09C938E931497C481D581BB83AA83A08504
S11302D0B18511968D919C911297E817F90721F435
S11302E01296DC93CE931197118610868C918150CF
S11302F08C93DF91CF91089531E1FC0130833197E4
S113030022E220833197A3E3A0833197608331975E
S1130310708331971082319760E86083319710823F
S1130320319762E06083319763E06083319764E0E2
S11303306083319765E06083319766E0608331972D
S113034067E06083319768E06083319769E0608398
S1130350319760E1608331973083319732E13083A4
S1130360319733E13083319734E13083319735E18C
S11303703083319736E13083319737E130833197D9
S113038038E13083319739E13083319730E230837B
S1130390319731E2308331972083319723E22083F0
S11303A03197408331975083319726E220833197E8
S11303B027E22083319728E22083319729E22083A2
S11303C0319720E32083319721E320838697089592
S11303D01BBC8CE78ABD8BE08EBD89B7806189BF69
S11303E0A091CF06B091D006CD91CDBFDD91DEBFF7
S11303F0FF91EF91DF91CF91BF91AF919F918F9139
S11304007F916F915F914F913F912F911F910F9128
S1130410FF90EF90DF90CF90BF90AF909F908F9020
S11304207F906F905F904F903F902F901F900F9010
S11304300FBE0F90089581E008950F920FB6F894BF
S11304400F921F9211242F923F924F925F926F92BC
S11304507F928F929F92AF92BF92CF92DF92EF9250
S1130460FF920F931F932F933F934F935F936F9339
S11304707F938F939F93AF93BF93CF93DF93EF9328
S1130480FF93A091CF06B091D0060DB60D920EB693
S11304900D920E94A40BA091CF06B091D006CD91ED
S11304A0CDBFDD91DEBFFF91EF91DF91CF91BF9181
S11304B0AF919F918F917F916F915F914F913F91F8
S11304C02F911F910F91FF90EF90DF90CF90BF90ED
S11304D0AF909F908F907F906F905F904F903F90E0
S11304E02F901F900F900FBE0F9008950F920FB68C
S11304F0F8940F921F9211242F923F924F925F9281
S11305006F927F928F929F92AF92BF92CF92DF921F
S1130510EF92FF920F931F932F933F934F935F9309
S11305206F937F938F939F93AF93BF93CF93DF93F7
S1130530EF93FF93A091CF06B091D0060DB60D9224
S11305400EB60D920E94060A0E94A40BA091CF063B
S1130550B091D006CD91CDBFDD91DEBFFF91EF917B
S1130560DF91CF91BF91AF919F918F917F916F91C7
S11305705F914F913F912F911F910F91FF90EF90B9
S1130580DF90CF90BF90AF909F908F907F906F90AF
S11305905F904F903F902F901F900F900FBE0F9041
S11305A008950E9476021895CF93DF93EC01942F5F
S11305B08C8D882399F1482F50E0911115C08C81BE
S11305C09D810E94940D2C8D8C819D81820F911DA3
S11305D09D838C832A813B8182179307F8F088815D
S11305E099819D838C831AC08E819F810E94940D72
S11305F08C8D90E09195819591092E813F81280FF2
S1130600391F3F832E83488159812417350730F4DD
S11306102A813B81820F931F9F838E838A8D8F5FF4
S11306208A8FDF91CF910895FC01CB0160817181A4
S11306306115710599F0448D50E026813781240FAE
S1130640351F37832683A281B3812A173B0710F015
S113065077836683668177810C94940D08950F9354
S11306601F93CF93DF93EC010FB6F8940F928C0194
S11306700F5E1F4F8E8D18166CF48989882351F0F4
S1130680C8010E940A0C81110E94850C8E8D815034
S11306908E8FF0CF8FEF8E8F0F900FBE0FB6F89422
S11306A00F928E01085F1F4F8D8D18166CF488858C
S11306B0882351F0C8010E940A0C81110E94850C04
S11306C08D8D81508D8FF0CF8FEF8D8F0F900FBE5A
S11306D0DF91CF911F910F910895CF92DF92EF9206
S11306E0FF920F931F93CF93DF938823A9F1F62EE4
S11306F0E82E8FE190E00E944900EC01892B61F122
S1130700CF2CD12CEF9C80011124C80101960E94AA
S11307104900998388830097E1F09C01200F311FE1
S11307203B832A831A8E9D838C830C191D09080F21
S1130730191F1F830E83EB8EFC8E8FEF8D8F8E8F90
S1130740CE0108960E94EC00CE0141960E94EC0076
S113075005C0CE010E946F00C0E0D0E0CE01DF9161
S1130760CF911F910F91FF90EF90DF90CF9008955C
S1130770AF92BF92DF92EF92FF920F931F93CF93AA
S1130780DF9300D000D01F92CDB7DEB78C017B0180
S11307905D834C83D22E80E0580198E0A90EB11CF1
S11307A00FB6F8940F92F801228D938D2917A8F4AF
S11307B04D2DB701C8010E94D402F8018189882314
S11307C041F0C80141960E940A0C813011F40E9444
S11307D01D020F900FBE81E050C02C813D81232B60
S11307E019F40F900FBE48C0811104C0CE010196C8
S11307F00E94470C0F900FBE0E94F6090FB6F894A2
S11308000F92F801858D8F3F09F4158EF801868DBE
S11308108F3F09F4168E0F900FBEBE016C5F7F4FA1
S1130820CE0101960E94520C811121C00FB6F8949A
S11308300F92F801928D0F900FBE838D981311C003
S11308406C817D81C5010E94EE0BC8010E942F03BB
S11308500E94A50A882311F081E0A2CF0E941D0204
S1130860FBCFC8010E942F030E94A50AF5CFC8013F
S11308700E942F030E94A50A80E00F900F900F9012
S11308800F900F90DF91CF911F910F91FF90EF90F8
S1130890DF90BF90AF900895AF92BF92DF92EF9236
S11308A0FF920F931F93CF93DF9300D000D01F923A
S11308B0CDB7DEB78C017B015D834C83D22E80E003
S11308C0580191E1A90EB11C0FB6F8940F92F801EA
S11308D0928D992339F1A680B780B701C8010E948F
S11308E01403F801D1100FC0828D8150828F80854E
S11308F08823A1F0C80108960E940A0C813071F483
S11309000E941D020BC0B782A6828189882331F020
S1130910C80141960E940A0C8111F2CF0F900FBEBC
S113092081E04FC02C813D81232B19F40F900FBE21
S113093047C0811104C0CE0101960E94470C0F905C
S11309400FBE0E94F6090FB6F8940F92F801858D38
S11309508F3F09F4158EF801868D8F3F09F4168EAA
S11309600F900FBEBE016C5F7F4FCE0101960E94B7
S1130970520C811120C00FB6F8940F92F801828DA9
S11309800F900FBE811111C06C817D81C5010E9441
S1130990EE0BC8010E942F030E94A50A882311F0C0
S11309A081E092CF0E941D02FBCFC8010E942F0359
S11309B00E94A50AF5CFC8010E942F030E94A50A30
S11309C080E00F900F900F900F900F90DF91CF91D8
S11309D01F910F91FF90EF90DF90BF90AF9008951B
S11309E01F93CF93DF9313E0C9E0D0E0AE0160E042
S11309F070E082E690E00E94E0002FE788E391E057
S1130A00215080409040E1F700C00000C1110E94D5
S1130A10D100219758F7C0E0D0E0AE0160E070E06B
S1130A2082E690E00E94E0009FE728E381E0915095
S1130A3020408040E1F700C000000E94D1002196D0
S1130A40CA30D10551F7115079F620E040E050E06A
S1130A5060E070E08091D1069091D2060E94B803C4
S1130A6080E090E0DF91CF911F910C947909AF92CF
S1130A70BF92CF92DF92EF92FF920F930E94980061
S1130A809FEF9ABB8FE081BB82B3806F82BB14BAA5
S1130A9085B395BB60E081E00E946D039093D2061C
S1130AA08093D106009739F020E040E050E060E008
S1130AB070E00E94B80320E04FEF5FEF60E070E069
S1130AC08091D1069091D2060E944C04A12CB12CA5
S1130AD0C12CD12CE12CF12C02E020E030E048E7DD
S1130AE050E060E070E080EF94E00E94810803E051
S1130AF020E030E048EC50E060E070E08DE397E007
S1130B000E94810801E020E030E044E650E060E02B
S1130B1070E086EF97E00E94810804E020E030E076
S1130B204EE650E060E070E08AE298E00E948108BE
S1130B300E94C40980E090E00F91FF90EF90DF9055
S1130B40CF90BF90AF9008958BB380958BBB2FEF60
S1130B5084E39CE0215080409040E1F700C0000015
S1130B6008959098919A929A939A849904C0849B38
S1130B70FECF87E016C0859904C0859BFECF88E030
S1130B8010C0869904C0869BFECF89E00AC087996D
S1130B9007C0879BFECF81E080936D0684E601C089
S1130BA08BE69198909A929A939A849904C0849B24
S1130BB0FECF84E014C0859904C0859BFECF85E0F8
S1130BC00EC0869904C0869BFECF86E008C0879934
S1130BD006C081E080936D06879BFECF84E79298E0
S1130BE0909A919A939A849904C0849BFECF81E051
S1130BF014C0859904C0859BFECF82E00EC08699FF
S1130C0004C0869BFECF83E008C0879906C081E0BC
S1130C1080936D06879BFECF8DE69398909A919A68
S1130C20929A849904C0849BFECF8FE60895859997
S1130C3004C0859BFECF80E00895869907C081E0BB
S1130C4080936D06869BFECF85E60895879906C03E
S1130C5081E080936D06879BFECF80E708952F92F5
S1130C603F924F925F926F927F928F929F92AF9238
S1130C70BF92CF92DF92EF92FF920F931F93CF9385
S1130C80DF93CDB7DEB765970FB6F894DEBF0FBE1E
S1130C90CDBF382FAE014F5F5F4F5A8B498B80E138
S1130CA0FA0111928A95E9F720E080E090E07AE079
S1130CB0789FA001799F500D1124E22FF0E0ED52AE
S1130CC0F94F8081FA01E80FF11DCF012F5F321730
S1130CD078F740E020E030E05AE0529FD001539F83
S1130CE0B00D1124E42FF0E0ED52F94F2089FD01FD
S1130CF0E20FF11D9F014F5F641778F74091F306EF
S1130D004D36E1F048F4443641F5BF010E94890CA8
S1130D10862E672E972E19C0403769F04437E9F4C0
S1130D208E9FA0018F9F500D9E9F500D1124842EE5
S1130D30652E952E0AC0280F391F04C0AC014E1B26
S1130D405F0B9A01822E632E932E990C9908792CAD
S1130D509B8A492C292C392C08C0812C612C912C7C
S1130D60712C1B8A412C212C312C512C282D362DF1
S1130D70492D572D6B89742DC101A0E00E94740D7B
S1130D8079F181E090E08C0F9D1F850D911D9D8B65
S1130D908C8B8AE0A82EB12CC12CD12CE12CF12C07
S1130DA000E010E0282D362D492D572D6B89742D28
S1130DB0C1010E949D0CEC89FD892083282D362DCC
S1130DC0492D572D6B89742DC1010E949F0C822ED1
S1130DD0632E942E752E6B8B472E1C015394C6CF15
S1130DE00E94D1008091F306843761F4F2E0F51596
S1130DF058F5FE01E50DF11D8081805D0E94A8007B
S1130E005A94F4CF843681F4AE014F5F5F4F4A01A8
S1130E10882DF9898F1B8515B8F4F40181914F0150
S1130E20805D0E94A800F4CF8D3611F0803761F404
S1130E3041E0451548F4FE01E50DF11D8081805D1A
S1130E400E94A8005A94F4CF65960FB6F894DEBFBA
S1130E500FBECDBFDF91CF911F910F91FF90EF9007
S1130E60DF90CF90BF90AF909F908F907F906F90C6
S1130E705F904F903F902F90089520E04FEF5FEFE9
S1130E8060E070E08091D1069091D2060E944C04FB
S1130E90D1E00E94B105C82F8B3629F485E090E09B
S1130EA00E94540BF6CF80916A06811104C0D0933E
S1130EB06B06D0936A06CF3661F40E94D10080E3BA
S1130EC00E94A80010926D0610926906109268069E
S1130ED0E0CF80916D06813081F180916C0610E342
S1130EE01C0F8130B1F480916806811102C00E9408
S1130EF0D100812F0E94A80080916806E82FF0E0BD
S1130F00ED52F94FC08B10926C068F5F8093680688
S1130F10C0CF80916906811102C00E94D100812F47
S1130F200E94A80080916906E82FF0E0ED52F94F85
S1130F30C0838F5F80936906ACCF10926D06C5366F
S1130F4049F460916806809169060E942F06109208
S1130F5069069FCF80936C06C093F3069ACF83B73C
S1130F60896683BFBB9A2FEF30E0EAE0F0E0C90165
S1130F70BF010E94890C6CBF8FE493EC0197F1F7D9
S1130F8000C0000021503F4F253F9AE0390779F710
S1130F9083B713BEC39A2FE78AE196E021508040BD
S1130FA09040E1F700C0000083B7896683BF26EF55
S1130FB039E0EAE0F0E0C901BF010E94890C6CBF8E
S1130FC08FE493EC0197F1F700C000002F5F310923
S1130FD091F783B713BEC3989FE72AE186E0915047
S1130FE020408040E1F700C000000895CF93CEE098
S1130FF080916B06811125C041E050E060E070E013
S11310008AE690E00E94E00042E050E061E070E097
S113101088E790E00E94E0002FEF84E39CE02150F9
S113102080409040E1F700C000000E94D1002FE70B
S11310308AE196E0215080409040E1F700C0000032
S113104004C080E090E00E947909C15089F6CF91F4
S11310500C94AF07CF93DF9300D0CDB7DEB7989948
S113106013C00E94FC099A8389830E94D10060E026
S113107076E3CE0101960E94140B9899F0CF0E945A
S1131080D1000E94AF07EBCF8AE090E00E94540B9E
S1131090E6CFCF93DF93E091CF06F091D006938310
S11310A0828320917606309177068217930770F435
S11310B06091CF067091D00680918C0690918D0638
S11310C06E5F7F4FDF91CF910C942101EC01609111
S11310D0CF067091D00680918E0690918F066E5F38
S11310E07F4F0E9421018091600090916100C81798
S11310F0D90720F4D0936100C0936000DF91CF91B1
S113110008954F925F926F927F928F929F92AF92C7
S1131110BF92CF92DF92EF92FF920F931F93CF93E0
S1131120DF932C013B015A01490181E290E00E94C6
S11311304900EC01892B09F4CAC0C114D10421F47B
S1131140C5010E94490001C0C601988F8F8B00978A
S113115021F4CE010E946F00BAC0A50165EA70E0D7
S11311600E949D0D21E0A21AB1088F89988DA80EC6
S1131170B91E48E050E0B301CE0149960E94A40D87
S113118018A2102F053008F014E01E8B6E0182E0C7
S1131190C80ED11CC6010E94FA00CE010C960E9412
S11311A0FA00D987C88785E090E0811B91099D8763
S11311B08C87DB8BCA8BA401B201C5010E947C0120
S11311C099838883E114F10419F0F701D183C08372
S11311D00FB6F8940F92809178068F5F809378060B
S11311E08091CF069091D006892BB1F5D093D0068B
S11311F0C093CF06809178068130E9F582EAE82E23
S113120086E0F82E9FECA92E96E0B92EC7010E9425
S1131210EC00F9E0EF0EF11CAE14BF04B9F789E954
S113122096E00E94EC0080E996E00E94EC0083E8DE
S113123096E00E94EC008AE796E00E94EC0089E9BF
S113124096E090938F0680938E0680E996E09093C3
S11312508D0680938C060FC08091730681110BC09C
S1131260E091CF06F091D0068689081720F0D0933C
S1131270D006C093CF068E8990917506981710F406
S11312808093750690916E069F5F90936E06909181
S11312907406981710F48093740629E0829FC001A5
S11312A01124B6018E55994F0E94FE000F900FBE77
S11312B080917306882349F0E091CF06F091D0061F
S11312C08689801710F40E941D0281E001C08FEF0F
S11312D0DF91CF911F910F91FF90EF90DF90CF900E
S11312E0BF90AF909F908F907F906F905F904F9042
S11312F00895EF92FF920F931F93CF93DF93EC0126
S11313000FB6F8940F928091CF069091D0068C1767
S11313109D0711F0209739F40091CF061091D00663
S1131320C0E0D0E001C08E01780182E0E80EF11C3B
S1131330C7010E945801F80184899589892B21F0FD
S1131340C8010C960E945801B7018AE796E00E94F2
S1131350FE00809179068F5F8093790680916E06F6
S11313608F5F80936E060F900FBE80917306882363
S113137021F0CD2B11F40E941D02DF91CF911F911A
S11313800F91FF90EF900895AF92BF92CF92DF92AA
S1131390EF92FF920F93A12CB12CC12CD12CE12CF4
S11313A0F12C00E020E030E045E550E065E870E035
S11313B085E79BE00E948108813081F4F894809352
S11313C0730610927706109276060F91FF90EF90B5
S11313D0DF90CF90BF90AF900C94E8010F91FF90F5
S11313E0EF90DF90CF90BF90AF90089580917206F8
S11313F08F5F8093720608950FB6F8940F928091D0
S11314007606909177060F900FBE0895FF920F9382
S11314101F93CF93DF938091720681118BC08091CB
S113142076069091770601969093770680937606D8
S11314308091760690917706892B79F580918E06B6
S113144090918F0620918C0630918D0630938F06F3
S113145020938E0690938D0680938C0680916F0660
S11314608F5F80936F06E0918E06F0918F068081E6
S1131470811103C08FEF9FEF0CC0E0918E06F091B5
S11314808F060580F681E02D0680F781E02D8281AC
S1131490938190936100809360002091760630914F
S11314A0770680916000909161002817390708F44D
S11314B046C089E0F82EE0918E06F0918F06808177
S11314C0811103C08FEF9FEF12C0E0918E06F0915F
S11314D08F060580F681E02DC681D7818A819B81A4
S11314E020917606309177062817390728F49093CF
S11314F061008093600023C08E010E5F1F4FC801FE
S11315000E9458018C899D89892B21F0CE010C966B
S11315100E9458018E8990917406981710F4809354
S11315207406F89EC0011124B8018E55994F0E948B
S1131530FE00C1CF809171068F5F80937106DF91A9
S1131540CF911F910F91FF900895EF92FF920F9307
S11315501F93CF93DF930FB6F8940F928091720686
S113156081508093720680917206882311F080E086
S113157052C0809178068823D1F310E009E080916D
S11315808306882351F1E0918806F0918906C6818B
S1131590D781CE010C960E9458017E0182E0E80EAC
S11315A0F11CC7010E9458018E8990917406981706
S11315B010F480937406089FC0011124B7018E555E
S11315C0994F0E94FE00E091CF06F091D0069E89CB
S11315D086899817A0F211E0D2CF809171068823F2
S11315E061F080917106882351F00E94060A80916F
S11315F07106815080937106F4CF113031F410924A
S113160070060E941D0281E006C080917006813040
S113161009F0ADCFF4CF0F900FBEDF91CF911F91A2
S11316200F91FF90EF9008950F931F93CF93DF9343
S11316308C01EB010E94F609F80180819181C80FA9
S1131640D91F20917606309177062817390720F4A0
S1131650C817D90760F403C0C817D90750F0209100
S113166076063091770681E02C173D0718F080E06C
S113167001C081E0F801D183C083882351F08091B7
S1131680CF069091D00602960E945801CE010E9486
S113169049080E94A50A811102C00E941D02DF911F
S11316A0CF911F910F910895CF93DF93EC01892B74
S11316B019F40E941D0216C00E94F6098091760654
S11316C090917706C80FD91F8091CF069091D006CC
S11316D002960E945801CE010E9449080E94A50A60
S11316E0882339F3DF91CF91089580917906882377
S11316F041F10E94F609C0917A060E94A50ACC2302
S113170001F10FB6F8940F92E0917F06F0918006F4
S1131710C681D781CE0102960E9458018091780635
S11317208150809378068091790681508093790660
S11317300F900FBE8F89988D0E946F00CE010E947A
S11317406F000E94A405D1CF80917206882321F0F6
S113175081E080937006089599E0E09174069E9F5D
S1131760F0011124EE55F94F8081811106C080915A
S11317707406815080937406F0CF8091740690E0D3
S113178049E0489F9001499F300D1124F901EE551D
S1131790F94FA181B28112960D90BC91A02DB28314
S11317A0A1832B55394FA217B30731F412962D910B
S11317B03C9113973283218329E0289FF001299FCC
S11317C0F00D1124EE55F94F0180F281E02D868150
S11317D097819093D0068093CF060895CF93DF939B
S11317E0EB016091CF067091D006645F7F4F0E9439
S11317F021018091CF069091D00602960E94580153
S113180080917606909177068C0F9D1FDF91CF9182
S11318100C9449080F931F93CF93DF93DC01159623
S1131820ED91FC911697C681D7818E01045F1F4FFD
S1131830C8010E94580180917206811114C00A5097
S11318401109C8010E9458018E8990917406981755
S113185010F480937406B9E08B9FC0011124B80181
S11318608E55994F03C0B80183E896E00E94FE00AC
S1131870E091CF06F091D00681E02E899689291750
S113188008F480E0DF91CF911F910F91089520918A
S11318906F06FC012083209176063091770632830F
S11318A0218308950FB6F8940F9220916F06DC01FE
S11318B03C911196ED91FC911297321739F02091D9
S11318C07606309177062E173F07D8F440917606B6
S11318D050917706DB012D913C9111974E1B5F0BC4
S11318E04217530770F440917606509177064E1BC9
S11318F05F0B241B350B2D933C930E94470C80E017
S113190001C081E00F900FBE089581E080937006BE
S1131910089597FB072E16F4009407D077FD09D09D
S11319200E94800D07FC05D03EF4909581959F4F51
S11319300895709561957F4F0895689401C0E89467
S1131940F92FF12B12F00C94D10CA0E0B0E0EBEAEB
S1131950FCE00C94430D092E059422F40E942D0DF5
S1131960112392F4F0E80F26FFEFE094F094009531
S11319701095B094C094D094A194BF0ACF0ADF0A02
S1131980EF0AFF0A0F0B1F0B0E94DC0C07FC0E94DE
S11319902D0DCDB7DEB7ECE00C945F0D689401C05B
S11319A0E8948F929F92CF93DF930E94DC0CDF9197
S11319B0CF919F908F90089588249924F401E40195
S11319C0B0E49F93AA279A158B049C04ED05FE05A9
S11319D0CF05D007A10798F4AD2FDC2FCF2FFE2F12
S11319E0E92D982C892E982F872F762F652F542F29
S11319F0432F322F2227B85031F7BF9127C01B2E17
S1131A00BF91BB27220F331F441F551F661F771F2B
S1131A10881F991F881C991CEE1FFF1FCC1FDD1FF8
S1131A20AA1FBB1F8A149B04EC05FD05CE05DF0528
S1131A30A007B10748F08A189B08EC09FD09CE09F4
S1131A40DF09A00BB10B21601A94E1F62EF4940186
S1131A50AF01BE01CD01000C08956095709580958D
S1131A60909530954095509521953F4F4F4F5F4F3E
S1131A706F4F7F4F8F4F9F4F08952F923F924F92FA
S1131A805F926F927F928F929F92AF92BF92CF920A
S1131A90DF92EF92FF920F931F93CF93DF93CDB713
S1131AA0DEB7CA1BDB0B0FB6F894DEBF0FBECDBF8B
S1131AB009942A88398848885F846E847D848C845C
S1131AC09B84AA84B984C884DF80EE80FD800C8165
S1131AD01B81AA81B981CE0FD11D0FB6F894DEBF48
S1131AE00FBECDBFED0108950024A7FD00942A1771
S1131AF03005400550056005700580059005089582
S1131B00AA1BBB1B51E107C0AA1FBB1FA617B7071F
S1131B1010F0A61BB70B881F991F5A95A9F780953B
S1131B209095BC01CD010895FB01DC0102C0019038
S1131B300D9241505040D8F70895DC0101C06D93D7
S1131B4041505040E0F70895FB01DC014150504002
S1131B5048F001900D920020C9F701C01D92415038
S10D1B605040E0F70895F894FFCF19
S1131B6AFFFF77656C636F6D650070726573732030
S1131B7A616E79206B657900746F20636F6E746986
S10D1B8A6E7565200049444C4500C7
S9030000FC
